{
  "_format": "hh-sol-artifact-1",
  "contractName": "ArtAlleyMarketplace",
  "sourceName": "contracts/Marketplace.sol",
  "abi": [
    {
      "anonymous": false,
      "inputs": [
        {
          "indexed": true,
          "internalType": "address",
          "name": "owner",
          "type": "address"
        },
        {
          "indexed": true,
          "internalType": "address",
          "name": "collectionAddress",
          "type": "address"
        },
        {
          "indexed": false,
          "internalType": "uint256",
          "name": "tokenId",
          "type": "uint256"
        },
        {
          "indexed": false,
          "internalType": "uint256",
          "name": "listingPrice",
          "type": "uint256"
        }
      ],
      "name": "NewListingCreated",
      "type": "event"
    },
    {
      "anonymous": false,
      "inputs": [
        {
          "indexed": true,
          "internalType": "address",
          "name": "owner",
          "type": "address"
        },
        {
          "indexed": true,
          "internalType": "address",
          "name": "collectionAddress",
          "type": "address"
        },
        {
          "indexed": false,
          "internalType": "uint256",
          "name": "tokenId",
          "type": "uint256"
        },
        {
          "indexed": false,
          "internalType": "uint256",
          "name": "Price",
          "type": "uint256"
        },
        {
          "indexed": false,
          "internalType": "bool",
          "name": "aproval",
          "type": "bool"
        }
      ],
      "name": "itemCreation",
      "type": "event"
    },
    {
      "anonymous": false,
      "inputs": [
        {
          "indexed": true,
          "internalType": "address",
          "name": "owner",
          "type": "address"
        },
        {
          "indexed": true,
          "internalType": "address",
          "name": "collectionAddress",
          "type": "address"
        },
        {
          "indexed": false,
          "internalType": "uint256",
          "name": "tokenId",
          "type": "uint256"
        },
        {
          "indexed": false,
          "internalType": "uint256",
          "name": "Price",
          "type": "uint256"
        }
      ],
      "name": "listingsold",
      "type": "event"
    },
    {
      "inputs": [
        {
          "internalType": "address",
          "name": "collectionAddress",
          "type": "address"
        },
        {
          "internalType": "uint256",
          "name": "tokenId",
          "type": "uint256"
        }
      ],
      "name": "buylisting",
      "outputs": [],
      "stateMutability": "payable",
      "type": "function"
    },
    {
      "inputs": [
        {
          "internalType": "address",
          "name": "collectionAddress",
          "type": "address"
        },
        {
          "internalType": "uint256",
          "name": "tokenId",
          "type": "uint256"
        },
        {
          "internalType": "uint256",
          "name": "listingPrice",
          "type": "uint256"
        }
      ],
      "name": "createListing",
      "outputs": [],
      "stateMutability": "nonpayable",
      "type": "function"
    },
    {
      "inputs": [
        {
          "internalType": "address",
          "name": "collectionAddress",
          "type": "address"
        },
        {
          "internalType": "uint256",
          "name": "tokenId",
          "type": "uint256"
        },
        {
          "internalType": "uint256",
          "name": "Price",
          "type": "uint256"
        },
        {
          "internalType": "bool",
          "name": "approval",
          "type": "bool"
        }
      ],
      "name": "makeItem",
      "outputs": [],
      "stateMutability": "nonpayable",
      "type": "function"
    }
  ],
  "bytecode": "0x608060405234801561001057600080fd5b506001600081905550611348806100286000396000f3fe6080604052600436106100345760003560e01c806324780c56146100395780632af9a45214610062578063aa49a7741461007e575b600080fd5b34801561004557600080fd5b50610060600480360381019061005b9190610c45565b6100a7565b005b61007c60048036038101906100779190610c98565b6104c5565b005b34801561008a57600080fd5b506100a560048036038101906100a09190610d10565b61092a565b005b60008373ffffffffffffffffffffffffffffffffffffffff16636352211e846040518263ffffffff1660e01b81526004016100e29190610d86565b602060405180830381865afa1580156100ff573d6000803e3d6000fd5b505050506040513d601f19601f820116820180604052508101906101239190610db6565b90506000600160003373ffffffffffffffffffffffffffffffffffffffff1673ffffffffffffffffffffffffffffffffffffffff16815260200190815260200160002060008581526020019081526020016000206040518060800160405290816000820160009054906101000a900473ffffffffffffffffffffffffffffffffffffffff1673ffffffffffffffffffffffffffffffffffffffff1673ffffffffffffffffffffffffffffffffffffffff16815260200160018201548152602001600282015481526020016003820160009054906101000a900460ff1615151515815250509050600073ffffffffffffffffffffffffffffffffffffffff168273ffffffffffffffffffffffffffffffffffffffff1603610278576040517f08c379a000000000000000000000000000000000000000000000000000000000815260040161026f90610e66565b60405180910390fd5b3373ffffffffffffffffffffffffffffffffffffffff168273ffffffffffffffffffffffffffffffffffffffff16146102e6576040517f08c379a00000000000000000000000000000000000000000000000000000000081526004016102dd90610ef8565b60405180910390fd5b8473ffffffffffffffffffffffffffffffffffffffff1663e985e9c533306040518363ffffffff1660e01b8152600401610321929190610f27565b602060405180830381865afa15801561033e573d6000803e3d6000fd5b505050506040513d601f19601f820116820180604052508101906103629190610f65565b6103a1576040517f08c379a000000000000000000000000000000000000000000000000000000000815260040161039890611004565b60405180910390fd5b600073ffffffffffffffffffffffffffffffffffffffff16816000015173ffffffffffffffffffffffffffffffffffffffff16036103eb576103e6858585600161092a565b610457565b60018060003373ffffffffffffffffffffffffffffffffffffffff1673ffffffffffffffffffffffffffffffffffffffff168152602001908152602001600020600086815260200190815260200160002060030160006101000a81548160ff0219169083151502179055505b8473ffffffffffffffffffffffffffffffffffffffff163373ffffffffffffffffffffffffffffffffffffffff167f5864a9fdd0459c925d64bca40c6c726602b1cbf9480978027439094b46122e6d86866040516104b6929190611024565b60405180910390a35050505050565b60008273ffffffffffffffffffffffffffffffffffffffff16636352211e836040518263ffffffff1660e01b81526004016105009190610d86565b602060405180830381865afa15801561051d573d6000803e3d6000fd5b505050506040513d601f19601f820116820180604052508101906105419190610db6565b90506000600160008373ffffffffffffffffffffffffffffffffffffffff1673ffffffffffffffffffffffffffffffffffffffff16815260200190815260200160002060008481526020019081526020016000206040518060800160405290816000820160009054906101000a900473ffffffffffffffffffffffffffffffffffffffff1673ffffffffffffffffffffffffffffffffffffffff1673ffffffffffffffffffffffffffffffffffffffff16815260200160018201548152602001600282015481526020016003820160009054906101000a900460ff1615151515815250509050600073ffffffffffffffffffffffffffffffffffffffff168273ffffffffffffffffffffffffffffffffffffffff1603610696576040517f08c379a000000000000000000000000000000000000000000000000000000000815260040161068d90610e66565b60405180910390fd5b600073ffffffffffffffffffffffffffffffffffffffff16816000015173ffffffffffffffffffffffffffffffffffffffff1603610709576040517f08c379a0000000000000000000000000000000000000000000000000000000008152600401610700906110bf565b60405180910390fd5b600115158160600151151514610754576040517f08c379a000000000000000000000000000000000000000000000000000000000815260040161074b90611177565b60405180910390fd5b806040015134101561079b576040517f08c379a000000000000000000000000000000000000000000000000000000000815260040161079290611209565b60405180910390fd5b8373ffffffffffffffffffffffffffffffffffffffff166323b872dd8333866040518463ffffffff1660e01b81526004016107d893929190611229565b600060405180830381600087803b1580156107f257600080fd5b505af1158015610806573d6000803e3d6000fd5b505050508173ffffffffffffffffffffffffffffffffffffffff166108fc349081150290604051600060405180830381858888f19350505050158015610850573d6000803e3d6000fd5b506000600160003373ffffffffffffffffffffffffffffffffffffffff1673ffffffffffffffffffffffffffffffffffffffff168152602001908152602001600020600085815260200190815260200160002060030160006101000a81548160ff0219169083151502179055508373ffffffffffffffffffffffffffffffffffffffff163373ffffffffffffffffffffffffffffffffffffffff167f14a79a0c1f7fc1f04231449d902d4c748241a29c130b233becfdc3fa401d8935853460405161091c929190611024565b60405180910390a350505050565b6000821161096d576040517f08c379a0000000000000000000000000000000000000000000000000000000008152600401610964906112ac565b60405180910390fd5b60405180608001604052808573ffffffffffffffffffffffffffffffffffffffff168152602001848152602001838152602001821515815250600160003373ffffffffffffffffffffffffffffffffffffffff1673ffffffffffffffffffffffffffffffffffffffff168152602001908152602001600020600085815260200190815260200160002060008201518160000160006101000a81548173ffffffffffffffffffffffffffffffffffffffff021916908373ffffffffffffffffffffffffffffffffffffffff160217905550602082015181600101556040820151816002015560608201518160030160006101000a81548160ff021916908315150217905550905050600260003373ffffffffffffffffffffffffffffffffffffffff1673ffffffffffffffffffffffffffffffffffffffff1681526020019081526020016000208390806001815401808255809150506001900390600052602060002001600090919091909150556003339080600181540180825580915050600190039060005260206000200160009091909190916101000a81548173ffffffffffffffffffffffffffffffffffffffff021916908373ffffffffffffffffffffffffffffffffffffffff1602179055508373ffffffffffffffffffffffffffffffffffffffff163373ffffffffffffffffffffffffffffffffffffffff167f85485f7fa80515e3e3f4dd0b33a53c114678f4dbad2532605530c9ac6b5eaaee858585604051610b9e939291906112db565b60405180910390a350505050565b600080fd5b600073ffffffffffffffffffffffffffffffffffffffff82169050919050565b6000610bdc82610bb1565b9050919050565b610bec81610bd1565b8114610bf757600080fd5b50565b600081359050610c0981610be3565b92915050565b6000819050919050565b610c2281610c0f565b8114610c2d57600080fd5b50565b600081359050610c3f81610c19565b92915050565b600080600060608486031215610c5e57610c5d610bac565b5b6000610c6c86828701610bfa565b9350506020610c7d86828701610c30565b9250506040610c8e86828701610c30565b9150509250925092565b60008060408385031215610caf57610cae610bac565b5b6000610cbd85828601610bfa565b9250506020610cce85828601610c30565b9150509250929050565b60008115159050919050565b610ced81610cd8565b8114610cf857600080fd5b50565b600081359050610d0a81610ce4565b92915050565b60008060008060808587031215610d2a57610d29610bac565b5b6000610d3887828801610bfa565b9450506020610d4987828801610c30565b9350506040610d5a87828801610c30565b9250506060610d6b87828801610cfb565b91505092959194509250565b610d8081610c0f565b82525050565b6000602082019050610d9b6000830184610d77565b92915050565b600081519050610db081610be3565b92915050565b600060208284031215610dcc57610dcb610bac565b5b6000610dda84828501610da1565b91505092915050565b600082825260208201905092915050565b7f4e465420646f65736e277420657869747320696e2074686520436f6c6c65637460008201527f696f6e206f72206f6e20426c6f636b636861696e000000000000000000000000602082015250565b6000610e50603483610de3565b9150610e5b82610df4565b604082019050919050565b60006020820190508181036000830152610e7f81610e43565b9050919050565b7f55736572206973206e6f7420746865206f776e6572206f662074686520746f6b60008201527f6b656e0000000000000000000000000000000000000000000000000000000000602082015250565b6000610ee2602383610de3565b9150610eed82610e86565b604082019050919050565b60006020820190508181036000830152610f1181610ed5565b9050919050565b610f2181610bd1565b82525050565b6000604082019050610f3c6000830185610f18565b610f496020830184610f18565b9392505050565b600081519050610f5f81610ce4565b92915050565b600060208284031215610f7b57610f7a610bac565b5b6000610f8984828501610f50565b91505092915050565b7f4d61726b6574706c616365206973206e6f7420617070726f76656420746f206c60008201527f697374206974656d730000000000000000000000000000000000000000000000602082015250565b6000610fee602983610de3565b9150610ff982610f92565b604082019050919050565b6000602082019050818103600083015261101d81610fe1565b9050919050565b60006040820190506110396000830185610d77565b6110466020830184610d77565b9392505050565b7f4974656d206973206e6f74206c6973746564206f6e204d61726b6574706c616360008201527f6500000000000000000000000000000000000000000000000000000000000000602082015250565b60006110a9602183610de3565b91506110b48261104d565b604082019050919050565b600060208201905081810360008301526110d88161109c565b9050919050565b7f4d61726b6574706c616365206973206e6f7420616c6c6f77656420746f20736560008201527f6c6c207468697320746f6b6b656e206669727374206372656174656c6973746960208201527f6e67206f6e206d61726b6574706c616365000000000000000000000000000000604082015250565b6000611161605183610de3565b915061116c826110df565b606082019050919050565b6000602082019050818103600083015261119081611154565b9050919050565b7f416d6f756e742073656e64206973206c657373207468656e207468652050726960008201527f6365206f6620746865206974656d2e0000000000000000000000000000000000602082015250565b60006111f3602f83610de3565b91506111fe82611197565b604082019050919050565b60006020820190508181036000830152611222816111e6565b9050919050565b600060608201905061123e6000830186610f18565b61124b6020830185610f18565b6112586040830184610d77565b949350505050565b7f5072696365206d7573742062652067726561746572207468616e207a65726f00600082015250565b6000611296601f83610de3565b91506112a182611260565b602082019050919050565b600060208201905081810360008301526112c581611289565b9050919050565b6112d581610cd8565b82525050565b60006060820190506112f06000830186610d77565b6112fd6020830185610d77565b61130a60408301846112cc565b94935050505056fea2646970667358221220d155bcb178a43ebb09d9c96b5577358735d38321f98b6d248d59eee14867960b64736f6c63430008110033",
  "linkReferences": {},
  "deployedLinkReferences": {}
}